{
  "_format": "hh-sol-artifact-1",
  "contractName": "Marketplace",
  "sourceName": "contracts/Marketplace.sol",
  "abi": [
    {
      "inputs": [],
      "stateMutability": "nonpayable",
      "type": "constructor"
    },
    {
      "anonymous": false,
      "inputs": [
        {
          "indexed": true,
          "internalType": "address",
          "name": "owner",
          "type": "address"
        },
        {
          "indexed": true,
          "internalType": "address",
          "name": "approved",
          "type": "address"
        },
        {
          "indexed": true,
          "internalType": "uint256",
          "name": "tokenId",
          "type": "uint256"
        }
      ],
      "name": "Approval",
      "type": "event"
    },
    {
      "anonymous": false,
      "inputs": [
        {
          "indexed": true,
          "internalType": "address",
          "name": "owner",
          "type": "address"
        },
        {
          "indexed": true,
          "internalType": "address",
          "name": "operator",
          "type": "address"
        },
        {
          "indexed": false,
          "internalType": "bool",
          "name": "approved",
          "type": "bool"
        }
      ],
      "name": "ApprovalForAll",
      "type": "event"
    },
    {
      "anonymous": false,
      "inputs": [
        {
          "indexed": true,
          "internalType": "address",
          "name": "token",
          "type": "address"
        },
        {
          "indexed": true,
          "internalType": "address",
          "name": "to",
          "type": "address"
        },
        {
          "indexed": false,
          "internalType": "uint256",
          "name": "amount",
          "type": "uint256"
        }
      ],
      "name": "ERC20Rescued",
      "type": "event"
    },
    {
      "anonymous": false,
      "inputs": [
        {
          "indexed": true,
          "internalType": "address",
          "name": "to",
          "type": "address"
        },
        {
          "indexed": false,
          "internalType": "uint256",
          "name": "amount",
          "type": "uint256"
        }
      ],
      "name": "FeesWithdrawn",
      "type": "event"
    },
    {
      "anonymous": false,
      "inputs": [
        {
          "indexed": true,
          "internalType": "address",
          "name": "to",
          "type": "address"
        },
        {
          "indexed": false,
          "internalType": "uint256",
          "name": "amount",
          "type": "uint256"
        }
      ],
      "name": "FundsWithdrawn",
      "type": "event"
    },
    {
      "anonymous": false,
      "inputs": [
        {
          "indexed": false,
          "internalType": "uint256",
          "name": "oldPrice",
          "type": "uint256"
        },
        {
          "indexed": false,
          "internalType": "uint256",
          "name": "newPrice",
          "type": "uint256"
        }
      ],
      "name": "ListingPriceUpdated",
      "type": "event"
    },
    {
      "anonymous": false,
      "inputs": [
        {
          "indexed": true,
          "internalType": "uint256",
          "name": "tokenId",
          "type": "uint256"
        },
        {
          "indexed": true,
          "internalType": "address",
          "name": "seller",
          "type": "address"
        }
      ],
      "name": "MarketItemCancelled",
      "type": "event"
    },
    {
      "anonymous": false,
      "inputs": [
        {
          "indexed": true,
          "internalType": "uint256",
          "name": "tokenId",
          "type": "uint256"
        },
        {
          "indexed": true,
          "internalType": "address",
          "name": "seller",
          "type": "address"
        },
        {
          "indexed": false,
          "internalType": "uint256",
          "name": "price",
          "type": "uint256"
        }
      ],
      "name": "MarketItemCreated",
      "type": "event"
    },
    {
      "anonymous": false,
      "inputs": [
        {
          "indexed": true,
          "internalType": "uint256",
          "name": "tokenId",
          "type": "uint256"
        },
        {
          "indexed": false,
          "internalType": "uint256",
          "name": "oldPrice",
          "type": "uint256"
        },
        {
          "indexed": false,
          "internalType": "uint256",
          "name": "newPrice",
          "type": "uint256"
        }
      ],
      "name": "MarketItemPriceUpdated",
      "type": "event"
    },
    {
      "anonymous": false,
      "inputs": [
        {
          "indexed": true,
          "internalType": "uint256",
          "name": "tokenId",
          "type": "uint256"
        },
        {
          "indexed": true,
          "internalType": "address",
          "name": "seller",
          "type": "address"
        },
        {
          "indexed": false,
          "internalType": "uint256",
          "name": "price",
          "type": "uint256"
        }
      ],
      "name": "MarketItemRelisted",
      "type": "event"
    },
    {
      "anonymous": false,
      "inputs": [
        {
          "indexed": true,
          "internalType": "uint256",
          "name": "tokenId",
          "type": "uint256"
        },
        {
          "indexed": true,
          "internalType": "address",
          "name": "seller",
          "type": "address"
        },
        {
          "indexed": true,
          "internalType": "address",
          "name": "buyer",
          "type": "address"
        },
        {
          "indexed": false,
          "internalType": "uint256",
          "name": "price",
          "type": "uint256"
        }
      ],
      "name": "MarketItemSold",
      "type": "event"
    },
    {
      "anonymous": false,
      "inputs": [
        {
          "indexed": true,
          "internalType": "address",
          "name": "previousOwner",
          "type": "address"
        },
        {
          "indexed": true,
          "internalType": "address",
          "name": "newOwner",
          "type": "address"
        }
      ],
      "name": "OwnershipTransferStarted",
      "type": "event"
    },
    {
      "anonymous": false,
      "inputs": [
        {
          "indexed": true,
          "internalType": "address",
          "name": "previousOwner",
          "type": "address"
        },
        {
          "indexed": true,
          "internalType": "address",
          "name": "newOwner",
          "type": "address"
        }
      ],
      "name": "OwnershipTransferred",
      "type": "event"
    },
    {
      "anonymous": false,
      "inputs": [
        {
          "indexed": false,
          "internalType": "address",
          "name": "account",
          "type": "address"
        }
      ],
      "name": "Paused",
      "type": "event"
    },
    {
      "anonymous": false,
      "inputs": [
        {
          "indexed": true,
          "internalType": "uint256",
          "name": "tokenId",
          "type": "uint256"
        },
        {
          "indexed": true,
          "internalType": "address",
          "name": "receiver",
          "type": "address"
        },
        {
          "indexed": false,
          "internalType": "uint96",
          "name": "feeNumerator",
          "type": "uint96"
        }
      ],
      "name": "RoyaltySet",
      "type": "event"
    },
    {
      "anonymous": false,
      "inputs": [
        {
          "indexed": true,
          "internalType": "uint256",
          "name": "tokenId",
          "type": "uint256"
        }
      ],
      "name": "TokenURIFrozen",
      "type": "event"
    },
    {
      "anonymous": false,
      "inputs": [
        {
          "indexed": true,
          "internalType": "address",
          "name": "from",
          "type": "address"
        },
        {
          "indexed": true,
          "internalType": "address",
          "name": "to",
          "type": "address"
        },
        {
          "indexed": true,
          "internalType": "uint256",
          "name": "tokenId",
          "type": "uint256"
        }
      ],
      "name": "Transfer",
      "type": "event"
    },
    {
      "anonymous": false,
      "inputs": [
        {
          "indexed": false,
          "internalType": "address",
          "name": "account",
          "type": "address"
        }
      ],
      "name": "Unpaused",
      "type": "event"
    },
    {
      "inputs": [],
      "name": "acceptOwnership",
      "outputs": [],
      "stateMutability": "nonpayable",
      "type": "function"
    },
    {
      "inputs": [
        {
          "internalType": "address",
          "name": "to",
          "type": "address"
        },
        {
          "internalType": "uint256",
          "name": "tokenId",
          "type": "uint256"
        }
      ],
      "name": "approve",
      "outputs": [],
      "stateMutability": "nonpayable",
      "type": "function"
    },
    {
      "inputs": [
        {
          "internalType": "address",
          "name": "owner",
          "type": "address"
        }
      ],
      "name": "balanceOf",
      "outputs": [
        {
          "internalType": "uint256",
          "name": "",
          "type": "uint256"
        }
      ],
      "stateMutability": "view",
      "type": "function"
    },
    {
      "inputs": [
        {
          "internalType": "uint256",
          "name": "tokenId",
          "type": "uint256"
        }
      ],
      "name": "cancelListing",
      "outputs": [],
      "stateMutability": "nonpayable",
      "type": "function"
    },
    {
      "inputs": [
        {
          "internalType": "uint256",
          "name": "tokenId",
          "type": "uint256"
        }
      ],
      "name": "createMarketSale",
      "outputs": [],
      "stateMutability": "payable",
      "type": "function"
    },
    {
      "inputs": [
        {
          "internalType": "string",
          "name": "tokenURI",
          "type": "string"
        },
        {
          "internalType": "uint256",
          "name": "price",
          "type": "uint256"
        },
        {
          "internalType": "address",
          "name": "royaltyReceiver",
          "type": "address"
        },
        {
          "internalType": "uint96",
          "name": "royaltyFee",
          "type": "uint96"
        }
      ],
      "name": "createToken",
      "outputs": [
        {
          "internalType": "uint256",
          "name": "",
          "type": "uint256"
        }
      ],
      "stateMutability": "payable",
      "type": "function"
    },
    {
      "inputs": [],
      "name": "fetchItemsListed",
      "outputs": [
        {
          "components": [
            {
              "internalType": "uint256",
              "name": "tokenId",
              "type": "uint256"
            },
            {
              "internalType": "uint256",
              "name": "price",
              "type": "uint256"
            },
            {
              "internalType": "address payable",
              "name": "seller",
              "type": "address"
            },
            {
              "internalType": "address payable",
              "name": "owner",
              "type": "address"
            },
            {
              "internalType": "uint96",
              "name": "listingFee",
              "type": "uint96"
            },
            {
              "internalType": "bool",
              "name": "sold",
              "type": "bool"
            },
            {
              "internalType": "bool",
              "name": "frozen",
              "type": "bool"
            }
          ],
          "internalType": "struct Marketplace.MarketItem[]",
          "name": "",
          "type": "tuple[]"
        }
      ],
      "stateMutability": "view",
      "type": "function"
    },
    {
      "inputs": [],
      "name": "fetchMarketItems",
      "outputs": [
        {
          "components": [
            {
              "internalType": "uint256",
              "name": "tokenId",
              "type": "uint256"
            },
            {
              "internalType": "uint256",
              "name": "price",
              "type": "uint256"
            },
            {
              "internalType": "address payable",
              "name": "seller",
              "type": "address"
            },
            {
              "internalType": "address payable",
              "name": "owner",
              "type": "address"
            },
            {
              "internalType": "uint96",
              "name": "listingFee",
              "type": "uint96"
            },
            {
              "internalType": "bool",
              "name": "sold",
              "type": "bool"
            },
            {
              "internalType": "bool",
              "name": "frozen",
              "type": "bool"
            }
          ],
          "internalType": "struct Marketplace.MarketItem[]",
          "name": "",
          "type": "tuple[]"
        }
      ],
      "stateMutability": "view",
      "type": "function"
    },
    {
      "inputs": [
        {
          "internalType": "uint256",
          "name": "offset",
          "type": "uint256"
        },
        {
          "internalType": "uint256",
          "name": "limit",
          "type": "uint256"
        }
      ],
      "name": "fetchMarketItems",
      "outputs": [
        {
          "components": [
            {
              "internalType": "uint256",
              "name": "tokenId",
              "type": "uint256"
            },
            {
              "internalType": "uint256",
              "name": "price",
              "type": "uint256"
            },
            {
              "internalType": "address payable",
              "name": "seller",
              "type": "address"
            },
            {
              "internalType": "address payable",
              "name": "owner",
              "type": "address"
            },
            {
              "internalType": "uint96",
              "name": "listingFee",
              "type": "uint96"
            },
            {
              "internalType": "bool",
              "name": "sold",
              "type": "bool"
            },
            {
              "internalType": "bool",
              "name": "frozen",
              "type": "bool"
            }
          ],
          "internalType": "struct Marketplace.MarketItem[]",
          "name": "items",
          "type": "tuple[]"
        },
        {
          "internalType": "uint256",
          "name": "total",
          "type": "uint256"
        }
      ],
      "stateMutability": "view",
      "type": "function"
    },
    {
      "inputs": [],
      "name": "fetchMyNFTs",
      "outputs": [
        {
          "components": [
            {
              "internalType": "uint256",
              "name": "tokenId",
              "type": "uint256"
            },
            {
              "internalType": "uint256",
              "name": "price",
              "type": "uint256"
            },
            {
              "internalType": "address payable",
              "name": "seller",
              "type": "address"
            },
            {
              "internalType": "address payable",
              "name": "owner",
              "type": "address"
            },
            {
              "internalType": "uint96",
              "name": "listingFee",
              "type": "uint96"
            },
            {
              "internalType": "bool",
              "name": "sold",
              "type": "bool"
            },
            {
              "internalType": "bool",
              "name": "frozen",
              "type": "bool"
            }
          ],
          "internalType": "struct Marketplace.MarketItem[]",
          "name": "",
          "type": "tuple[]"
        }
      ],
      "stateMutability": "view",
      "type": "function"
    },
    {
      "inputs": [
        {
          "internalType": "uint256",
          "name": "tokenId",
          "type": "uint256"
        }
      ],
      "name": "freezeTokenURI",
      "outputs": [],
      "stateMutability": "nonpayable",
      "type": "function"
    },
    {
      "inputs": [
        {
          "internalType": "uint256",
          "name": "tokenId",
          "type": "uint256"
        }
      ],
      "name": "getApproved",
      "outputs": [
        {
          "internalType": "address",
          "name": "",
          "type": "address"
        }
      ],
      "stateMutability": "view",
      "type": "function"
    },
    {
      "inputs": [],
      "name": "getListingPrice",
      "outputs": [
        {
          "internalType": "uint256",
          "name": "",
          "type": "uint256"
        }
      ],
      "stateMutability": "view",
      "type": "function"
    },
    {
      "inputs": [
        {
          "internalType": "uint256",
          "name": "tokenId",
          "type": "uint256"
        }
      ],
      "name": "getMarketItem",
      "outputs": [
        {
          "components": [
            {
              "internalType": "uint256",
              "name": "tokenId",
              "type": "uint256"
            },
            {
              "internalType": "uint256",
              "name": "price",
              "type": "uint256"
            },
            {
              "internalType": "address payable",
              "name": "seller",
              "type": "address"
            },
            {
              "internalType": "address payable",
              "name": "owner",
              "type": "address"
            },
            {
              "internalType": "uint96",
              "name": "listingFee",
              "type": "uint96"
            },
            {
              "internalType": "bool",
              "name": "sold",
              "type": "bool"
            },
            {
              "internalType": "bool",
              "name": "frozen",
              "type": "bool"
            }
          ],
          "internalType": "struct Marketplace.MarketItem",
          "name": "",
          "type": "tuple"
        }
      ],
      "stateMutability": "view",
      "type": "function"
    },
    {
      "inputs": [],
      "name": "getOwner",
      "outputs": [
        {
          "internalType": "address",
          "name": "",
          "type": "address"
        }
      ],
      "stateMutability": "view",
      "type": "function"
    },
    {
      "inputs": [
        {
          "internalType": "address",
          "name": "owner",
          "type": "address"
        },
        {
          "internalType": "address",
          "name": "operator",
          "type": "address"
        }
      ],
      "name": "isApprovedForAll",
      "outputs": [
        {
          "internalType": "bool",
          "name": "",
          "type": "bool"
        }
      ],
      "stateMutability": "view",
      "type": "function"
    },
    {
      "inputs": [
        {
          "internalType": "uint256",
          "name": "tokenId",
          "type": "uint256"
        }
      ],
      "name": "isTokenURIFrozen",
      "outputs": [
        {
          "internalType": "bool",
          "name": "",
          "type": "bool"
        }
      ],
      "stateMutability": "view",
      "type": "function"
    },
    {
      "inputs": [],
      "name": "name",
      "outputs": [
        {
          "internalType": "string",
          "name": "",
          "type": "string"
        }
      ],
      "stateMutability": "view",
      "type": "function"
    },
    {
      "inputs": [
        {
          "internalType": "uint256",
          "name": "tokenId",
          "type": "uint256"
        }
      ],
      "name": "ownerOf",
      "outputs": [
        {
          "internalType": "address",
          "name": "",
          "type": "address"
        }
      ],
      "stateMutability": "view",
      "type": "function"
    },
    {
      "inputs": [],
      "name": "pause",
      "outputs": [],
      "stateMutability": "nonpayable",
      "type": "function"
    },
    {
      "inputs": [],
      "name": "paused",
      "outputs": [
        {
          "internalType": "bool",
          "name": "",
          "type": "bool"
        }
      ],
      "stateMutability": "view",
      "type": "function"
    },
    {
      "inputs": [
        {
          "internalType": "address",
          "name": "account",
          "type": "address"
        }
      ],
      "name": "pendingWithdrawal",
      "outputs": [
        {
          "internalType": "uint256",
          "name": "",
          "type": "uint256"
        }
      ],
      "stateMutability": "view",
      "type": "function"
    },
    {
      "inputs": [
        {
          "internalType": "address",
          "name": "token",
          "type": "address"
        },
        {
          "internalType": "address",
          "name": "to",
          "type": "address"
        },
        {
          "internalType": "uint256",
          "name": "amount",
          "type": "uint256"
        }
      ],
      "name": "rescueERC20",
      "outputs": [],
      "stateMutability": "nonpayable",
      "type": "function"
    },
    {
      "inputs": [
        {
          "internalType": "address payable",
          "name": "to",
          "type": "address"
        },
        {
          "internalType": "uint256",
          "name": "amount",
          "type": "uint256"
        }
      ],
      "name": "rescueETH",
      "outputs": [],
      "stateMutability": "nonpayable",
      "type": "function"
    },
    {
      "inputs": [
        {
          "internalType": "uint256",
          "name": "tokenId",
          "type": "uint256"
        },
        {
          "internalType": "uint256",
          "name": "price",
          "type": "uint256"
        }
      ],
      "name": "resellToken",
      "outputs": [],
      "stateMutability": "payable",
      "type": "function"
    },
    {
      "inputs": [
        {
          "internalType": "uint256",
          "name": "_tokenId",
          "type": "uint256"
        },
        {
          "internalType": "uint256",
          "name": "_salePrice",
          "type": "uint256"
        }
      ],
      "name": "royaltyInfo",
      "outputs": [
        {
          "internalType": "address",
          "name": "",
          "type": "address"
        },
        {
          "internalType": "uint256",
          "name": "",
          "type": "uint256"
        }
      ],
      "stateMutability": "view",
      "type": "function"
    },
    {
      "inputs": [
        {
          "internalType": "address",
          "name": "from",
          "type": "address"
        },
        {
          "internalType": "address",
          "name": "to",
          "type": "address"
        },
        {
          "internalType": "uint256",
          "name": "tokenId",
          "type": "uint256"
        }
      ],
      "name": "safeTransferFrom",
      "outputs": [],
      "stateMutability": "nonpayable",
      "type": "function"
    },
    {
      "inputs": [
        {
          "internalType": "address",
          "name": "from",
          "type": "address"
        },
        {
          "internalType": "address",
          "name": "to",
          "type": "address"
        },
        {
          "internalType": "uint256",
          "name": "tokenId",
          "type": "uint256"
        },
        {
          "internalType": "bytes",
          "name": "data",
          "type": "bytes"
        }
      ],
      "name": "safeTransferFrom",
      "outputs": [],
      "stateMutability": "nonpayable",
      "type": "function"
    },
    {
      "inputs": [
        {
          "internalType": "address",
          "name": "operator",
          "type": "address"
        },
        {
          "internalType": "bool",
          "name": "approved",
          "type": "bool"
        }
      ],
      "name": "setApprovalForAll",
      "outputs": [],
      "stateMutability": "nonpayable",
      "type": "function"
    },
    {
      "inputs": [
        {
          "internalType": "bytes4",
          "name": "interfaceId",
          "type": "bytes4"
        }
      ],
      "name": "supportsInterface",
      "outputs": [
        {
          "internalType": "bool",
          "name": "",
          "type": "bool"
        }
      ],
      "stateMutability": "view",
      "type": "function"
    },
    {
      "inputs": [],
      "name": "symbol",
      "outputs": [
        {
          "internalType": "string",
          "name": "",
          "type": "string"
        }
      ],
      "stateMutability": "view",
      "type": "function"
    },
    {
      "inputs": [
        {
          "internalType": "uint256",
          "name": "tokenId",
          "type": "uint256"
        }
      ],
      "name": "tokenURI",
      "outputs": [
        {
          "internalType": "string",
          "name": "",
          "type": "string"
        }
      ],
      "stateMutability": "view",
      "type": "function"
    },
    {
      "inputs": [],
      "name": "totalItemsListed",
      "outputs": [
        {
          "internalType": "uint256",
          "name": "",
          "type": "uint256"
        }
      ],
      "stateMutability": "view",
      "type": "function"
    },
    {
      "inputs": [],
      "name": "totalItemsMinted",
      "outputs": [
        {
          "internalType": "uint256",
          "name": "",
          "type": "uint256"
        }
      ],
      "stateMutability": "view",
      "type": "function"
    },
    {
      "inputs": [
        {
          "internalType": "address",
          "name": "from",
          "type": "address"
        },
        {
          "internalType": "address",
          "name": "to",
          "type": "address"
        },
        {
          "internalType": "uint256",
          "name": "tokenId",
          "type": "uint256"
        }
      ],
      "name": "transferFrom",
      "outputs": [],
      "stateMutability": "nonpayable",
      "type": "function"
    },
    {
      "inputs": [
        {
          "internalType": "address payable",
          "name": "newOwner",
          "type": "address"
        }
      ],
      "name": "transferOwnership",
      "outputs": [],
      "stateMutability": "nonpayable",
      "type": "function"
    },
    {
      "inputs": [],
      "name": "unpause",
      "outputs": [],
      "stateMutability": "nonpayable",
      "type": "function"
    },
    {
      "inputs": [
        {
          "internalType": "uint256",
          "name": "tokenId",
          "type": "uint256"
        },
        {
          "internalType": "uint256",
          "name": "newPrice",
          "type": "uint256"
        }
      ],
      "name": "updateItemPrice",
      "outputs": [],
      "stateMutability": "nonpayable",
      "type": "function"
    },
    {
      "inputs": [
        {
          "internalType": "uint256",
          "name": "newListingPrice",
          "type": "uint256"
        }
      ],
      "name": "updateListingPrice",
      "outputs": [],
      "stateMutability": "nonpayable",
      "type": "function"
    },
    {
      "inputs": [
        {
          "internalType": "uint256",
          "name": "newMax",
          "type": "uint256"
        }
      ],
      "name": "updateMaxListingPrice",
      "outputs": [],
      "stateMutability": "nonpayable",
      "type": "function"
    },
    {
      "inputs": [],
      "name": "withdraw",
      "outputs": [],
      "stateMutability": "nonpayable",
      "type": "function"
    },
    {
      "stateMutability": "payable",
      "type": "receive"
    }
  ],
  "bytecode": "0x60806040526602e9c920b74000600e55670de0b6b3a7640000600f553480156200002857600080fd5b506040518060400160405280600f81526020016e4e46542d4d61726b6574706c61636560881b8152506040518060400160405280600381526020016213919560ea1b81525081600090816200007e91906200015c565b5060016200008d82826200015c565b5050600160095550600a805460ff19169055600c80546001600160a01b0319163317905562000228565b634e487b7160e01b600052604160045260246000fd5b600181811c90821680620000e257607f821691505b6020821081036200010357634e487b7160e01b600052602260045260246000fd5b50919050565b601f8211156200015757600081815260208120601f850160051c81016020861015620001325750805b601f850160051c820191505b8181101562000153578281556001016200013e565b5050505b505050565b81516001600160401b03811115620001785762000178620000b7565b6200019081620001898454620000cd565b8462000109565b602080601f831160018114620001c85760008415620001af5750858301515b600019600386901b1c1916600185901b17855562000153565b600085815260208120601f198616915b82811015620001f957888601518255948401946001909101908401620001d8565b5085821015620002185787850151600019600388901b60f8161c191681555b5050505050600190811b01905550565b61438d80620002386000396000f3fe60806040526004361061024a5760003560e01c806345f8fa8011610139578063a22cb465116100b6578063be9af5361161007a578063be9af536146106cd578063c7be7a49146106e0578063c87b56dd1461070d578063e219fc751461072d578063e985e9c514610740578063f2fde38b1461076057600080fd5b8063a22cb46514610638578063acb8cad714610658578063ae677aa31461066d578063b2118a8d1461068d578063b88d4fde146106ad57600080fd5b806370a08231116100fd57806370a08231146105bb57806379ba5097146105db5780638456cb59146105f0578063893d20e81461060557806395d89b411461062357600080fd5b806345f8fa80146105205780635c975abb146105355780636352211e1461054d5780636d4725de1461056d5780637063b64e1461058d57600080fd5b806323b872dd116101c7578063385c0eb01161018b578063385c0eb01461047e5780633ccfd60b1461049e5780633f4ba83a146104b357806341e068f7146104c857806342842e0e1461050057600080fd5b806323b872dd146103cc5780632769b96b146103ec5780632a55205a1461040c5780632af275611461044b578063305a67a81461045e57600080fd5b8063099a04e51161020e578063099a04e51461034b5780630b3e49401461036b5780630f08efe01461038057806312e85585146103a2578063202e3740146103b757600080fd5b806301ffc9a71461025657806306fdde031461028b578063081812fc146102ad578063095ea7b3146102e55780630964c95b1461030757600080fd5b3661025157005b600080fd5b34801561026257600080fd5b50610276610271366004613a64565b610780565b60405190151581526020015b60405180910390f35b34801561029757600080fd5b506102a0610791565b6040516102829190613ad1565b3480156102b957600080fd5b506102cd6102c8366004613ae4565b610823565b6040516001600160a01b039091168152602001610282565b3480156102f157600080fd5b50610305610300366004613b12565b61084a565b005b34801561031357600080fd5b5061033d610322366004613b3e565b6001600160a01b031660009081526014602052604090205490565b604051908152602001610282565b34801561035757600080fd5b50610305610366366004613b12565b610964565b34801561037757600080fd5b5061033d610b38565b34801561038c57600080fd5b50610395610b48565b6040516102829190613bff565b3480156103ae57600080fd5b50600e5461033d565b3480156103c357600080fd5b50610395610d87565b3480156103d857600080fd5b506103056103e7366004613c12565b610f5c565b3480156103f857600080fd5b50610305610407366004613c53565b61100a565b34801561041857600080fd5b5061042c610427366004613c53565b611156565b604080516001600160a01b039093168352602083019190915201610282565b61033d610459366004613d01565b611202565b34801561046a57600080fd5b50610305610479366004613ae4565b6114d7565b34801561048a57600080fd5b50610305610499366004613ae4565b6116e5565b3480156104aa57600080fd5b5061030561180a565b3480156104bf57600080fd5b50610305611978565b3480156104d457600080fd5b506102766104e3366004613ae4565b600090815260136020526040902060040154610100900460ff1690565b34801561050c57600080fd5b5061030561051b366004613c12565b6119ac565b34801561052c57600080fd5b506103956119c7565b34801561054157600080fd5b50600a5460ff16610276565b34801561055957600080fd5b506102cd610568366004613ae4565b611b9c565b34801561057957600080fd5b50610305610588366004613ae4565b611bfc565b34801561059957600080fd5b506105ad6105a8366004613c53565b611c74565b604051610282929190613d8d565b3480156105c757600080fd5b5061033d6105d6366004613b3e565b611efd565b3480156105e757600080fd5b50610305611f83565b3480156105fc57600080fd5b5061030561203b565b34801561061157600080fd5b50600c546001600160a01b03166102cd565b34801561062f57600080fd5b506102a061206d565b34801561064457600080fd5b50610305610653366004613dbd565b61207c565b34801561066457600080fd5b5060125461033d565b34801561067957600080fd5b50610305610688366004613ae4565b61208b565b34801561069957600080fd5b506103056106a8366004613c12565b612195565b3480156106b957600080fd5b506103056106c8366004613df6565b61227b565b6103056106db366004613ae4565b612330565b3480156106ec57600080fd5b506107006106fb366004613ae4565b612722565b6040516102829190613e76565b34801561071957600080fd5b506102a0610728366004613ae4565b6127dd565b61030561073b366004613c53565b6128ed565b34801561074c57600080fd5b5061027661075b366004613e84565b612b03565b34801561076c57600080fd5b5061030561077b366004613b3e565b612b31565b600061078b82612bfc565b92915050565b6060600080546107a090613eb2565b80601f01602080910402602001604051908101604052809291908181526020018280546107cc90613eb2565b80156108195780601f106107ee57610100808354040283529160200191610819565b820191906000526020600020905b8154815290600101906020018083116107fc57829003601f168201915b5050505050905090565b600061082e82612c21565b506000908152600460205260409020546001600160a01b031690565b600061085582611b9c565b9050806001600160a01b0316836001600160a01b0316036108c75760405162461bcd60e51b815260206004820152602160248201527f4552433732313a20617070726f76616c20746f2063757272656e74206f776e656044820152603960f91b60648201526084015b60405180910390fd5b336001600160a01b03821614806108e357506108e38133612b03565b6109555760405162461bcd60e51b815260206004820152603e60248201527f4552433732313a20617070726f76652063616c6c6572206973206e6f7420746f60448201527f6b656e206f776e6572206e6f7220617070726f76656420666f7220616c6c000060648201526084016108be565b61095f8383612c83565b505050565b600c546001600160a01b0316331461098e5760405162461bcd60e51b81526004016108be90613eec565b6001600160a01b0382166109e45760405162461bcd60e51b815260206004820152601b60248201527f43616e6e6f742073656e6420746f207a65726f2061646472657373000000000060448201526064016108be565b60006011546010546109f69190613f32565b905080471015610a405760405162461bcd60e51b815260206004820152601560248201527442616c616e636520696e636f6e73697374656e637960581b60448201526064016108be565b6000610a4c8247613f45565b905080831115610a9e5760405162461bcd60e51b815260206004820152601a60248201527f43616e6e6f74207769746864726177206f7765642066756e647300000000000060448201526064016108be565b6000846001600160a01b03168460405160006040518083038185875af1925050503d8060008114610aeb576040519150601f19603f3d011682016040523d82523d6000602084013e610af0565b606091505b5050905080610b315760405162461bcd60e51b815260206004820152600d60248201526c14995cd8dd594819985a5b1959609a1b60448201526064016108be565b5050505050565b6000610b43600b5490565b905090565b60606000610b55600b5490565b90506000805b82811015610be5573060136000610b73846001613f32565b81526020810191909152604001600020600301546001600160a01b0316148015610bc0575060136000610ba7836001613f32565b815260208101919091526040016000206004015460ff16155b15610bd35781610bcf81613f58565b9250505b80610bdd81613f58565b915050610b5b565b5060008167ffffffffffffffff811115610c0157610c01613c75565b604051908082528060200260200182016040528015610c3a57816020015b610c27613a12565b815260200190600190039081610c1f5790505b5090506000805b84811015610d7d573060136000610c59846001613f32565b81526020810191909152604001600020600301546001600160a01b0316148015610ca6575060136000610c8d836001613f32565b815260208101919091526040016000206004015460ff16155b15610d6b5760136000610cba836001613f32565b81526020808201929092526040908101600020815160e0810183528154815260018201549381019390935260028101546001600160a01b039081169284019290925260038101549182166060840152600160a01b9091046001600160601b031660808301526004015460ff808216151560a084015261010090910416151560c08201528351849084908110610d5157610d51613f71565b60200260200101819052508180610d6790613f58565b9250505b80610d7581613f58565b915050610c41565b5090949350505050565b60606000610d94600b5490565b90506000805b82811015610df4573360136000610db2846001613f32565b81526020810191909152604001600020600301546001600160a01b031603610de25781610dde81613f58565b9250505b80610dec81613f58565b915050610d9a565b5060008167ffffffffffffffff811115610e1057610e10613c75565b604051908082528060200260200182016040528015610e4957816020015b610e36613a12565b815260200190600190039081610e2e5790505b5090506000805b84811015610d7d573360136000610e68846001613f32565b81526020810191909152604001600020600301546001600160a01b031603610f4a5760136000610e99836001613f32565b81526020808201929092526040908101600020815160e0810183528154815260018201549381019390935260028101546001600160a01b039081169284019290925260038101549182166060840152600160a01b9091046001600160601b031660808301526004015460ff808216151560a084015261010090910416151560c08201528351849084908110610f3057610f30613f71565b60200260200101819052508180610f4690613f58565b9250505b80610f5481613f58565b915050610e50565b6001600160a01b0383163014801590610f7e57506001600160a01b0382163014155b15610fff576000818152601360205260409020600481015460ff1680610fb1575060038101546001600160a01b03163014155b610ffd5760405162461bcd60e51b815260206004820152601b60248201527f43616e6e6f74207472616e73666572206c6973746564206974656d000000000060448201526064016108be565b505b61095f838383612cf1565b60026009540361102c5760405162461bcd60e51b81526004016108be90613f87565b6002600955611039612d22565b600082815260136020526040902080546110655760405162461bcd60e51b81526004016108be90613fbe565b600481015460ff161561108a5760405162461bcd60e51b81526004016108be90613feb565b60028101546001600160a01b031633146110e65760405162461bcd60e51b815260206004820152601c60248201527f4f6e6c792073656c6c65722063616e207570646174652070726963650000000060448201526064016108be565b600082116111065760405162461bcd60e51b81526004016108be90614016565b60018101805490839055604080518281526020810185905285917f6f19a8632b67faadb51147c7125a49b8b659bb7747016037f6781893fe9fd507910160405180910390a2505060016009555050565b60008281526008602090815260408083208151808301909252546001600160a01b038116808352600160a01b9091046001600160601b03169282019290925282916111cb5750604080518082019091526007546001600160a01b0381168252600160a01b90046001600160601b031660208201525b6020810151600090612710906111ea906001600160601b03168761404d565b6111f4919061407a565b915196919550909350505050565b60006002600954036112265760405162461bcd60e51b81526004016108be90613f87565b6002600955611233612d22565b600084116112535760405162461bcd60e51b81526004016108be90614016565b600e54341461129d5760405162461bcd60e51b81526020600482015260166024820152754d75737420706179206c697374696e6720707269636560501b60448201526064016108be565b600e546001600160601b0310156112ef5760405162461bcd60e51b81526020600482015260166024820152754c697374696e67207072696365206f766572666c6f7760501b60448201526064016108be565b6112fd600b80546001019055565b6000611308600b5490565b90506113143382612d68565b61131e8187612eaa565b6001600160a01b0384161580159061133f57506000836001600160601b0316115b156113995761134f818585612f11565b6040516001600160601b03841681526001600160a01b0385169082907f93c3d3c02f3e5b8ff28a98e2ff5dc3d9395f4f02af3a830c3789c8af254202539060200160405180910390a35b6040805160e0810182528281526020808201888152338385019081523060608501908152600e546001600160601b0390811660808701908152600060a0880181815260c089018281528b83526013909852988120975188559451600188015592516002870180546001600160a01b039283166001600160a01b03199091161790559151925116600160a01b029116176003840155925160049092018054915115156101000261ff00199315159390931661ffff1990921691909117919091179055601280549161146883613f58565b9190505550600e54601060008282546114819190613f32565b90915550611492905033308361301f565b604051858152339082907fec759846c972e2aa7c351c68392f7388dfb8511b1d2be0ee4cdfbc50011f71529060200160405180910390a3600160095595945050505050565b6002600954036114f95760405162461bcd60e51b81526004016108be90613f87565b60026009556000818152601360205260409020805461152a5760405162461bcd60e51b81526004016108be90613fbe565b600481015460ff161561154f5760405162461bcd60e51b81526004016108be90613feb565b60028101546001600160a01b031633146115a45760405162461bcd60e51b815260206004820152601660248201527513db9b1e481cd95b1b195c8818d85b8818d85b98d95b60521b60448201526064016108be565b60038101546001600160a01b031630146115f25760405162461bcd60e51b815260206004820152600f60248201526e125d195b481b9bdd081b1a5cdd1959608a1b60448201526064016108be565b6003810180546001600160a01b0319808216331790925560048301805460ff19166001179055600283018054909216909155601280546001600160601b03600160a01b90930492909216919060006116498361408e565b919050555080601060008282546116609190613f45565b90915550503360009081526014602052604081208054839290611684908490613f32565b92505081905550806011600082825461169d9190613f32565b909155506116ae905030338561301f565b604051339084907f7f6c75506874ed287b7acd69828581f2bc14ac42c80899ce98ff4f76e465818090600090a35050600160095550565b6000818152601360205260409020546117105760405162461bcd60e51b81526004016108be90613fbe565b6000818152601360205260409020600201546001600160a01b031633148061175157506000818152601360205260409020600301546001600160a01b031633145b806117665750600c546001600160a01b031633145b6117c25760405162461bcd60e51b815260206004820152602760248201527f4f6e6c792073656c6c65722c206f776e65722c206f722061646d696e2063616e60448201526620667265657a6560c81b60648201526084016108be565b600081815260136020526040808220600401805461ff0019166101001790555182917fc88b1985dcda3e8696773b87e18a8ea74e5b688d359d86629fda95e2a167a60e91a250565b60026009540361182c5760405162461bcd60e51b81526004016108be90613f87565b600260095533600090815260146020526040902054806118855760405162461bcd60e51b81526020600482015260146024820152734e6f2066756e647320746f20776974686472617760601b60448201526064016108be565b336000908152601460205260408120819055601180548392906118a9908490613f45565b9091555050604051600090339083908381818185875af1925050503d80600081146118f0576040519150601f19603f3d011682016040523d82523d6000602084013e6118f5565b606091505b505090508061193a5760405162461bcd60e51b815260206004820152601160248201527015da5d1a191c985dd85b0819985a5b1959607a1b60448201526064016108be565b60405182815233907feaff4b37086828766ad3268786972c0cd24259d4c87a80f9d3963a3c3d999b0d9060200160405180910390a250506001600955565b600c546001600160a01b031633146119a25760405162461bcd60e51b81526004016108be90613eec565b6119aa6131bb565b565b61095f8383836040518060200160405280600081525061227b565b606060006119d4600b5490565b90506000805b82811015611a345733601360006119f2846001613f32565b81526020810191909152604001600020600201546001600160a01b031603611a225781611a1e81613f58565b9250505b80611a2c81613f58565b9150506119da565b5060008167ffffffffffffffff811115611a5057611a50613c75565b604051908082528060200260200182016040528015611a8957816020015b611a76613a12565b815260200190600190039081611a6e5790505b5090506000805b84811015610d7d573360136000611aa8846001613f32565b81526020810191909152604001600020600201546001600160a01b031603611b8a5760136000611ad9836001613f32565b81526020808201929092526040908101600020815160e0810183528154815260018201549381019390935260028101546001600160a01b039081169284019290925260038101549182166060840152600160a01b9091046001600160601b031660808301526004015460ff808216151560a084015261010090910416151560c08201528351849084908110611b7057611b70613f71565b60200260200101819052508180611b8690613f58565b9250505b80611b9481613f58565b915050611a90565b6000818152600260205260408120546001600160a01b03168061078b5760405162461bcd60e51b8152602060048201526018602482015277115490cdcc8c4e881a5b9d985b1a59081d1bdad95b88125160421b60448201526064016108be565b600c546001600160a01b03163314611c265760405162461bcd60e51b81526004016108be90613eec565b60008111611c6f5760405162461bcd60e51b815260206004820152601660248201527504d7573742062652067726561746572207468616e20360541b60448201526064016108be565b600f55565b6012546060906000611c85600b5490565b90506000806000805b8481108015611c9c57508782105b15611d38573060136000611cb1846001613f32565b81526020810191909152604001600020600301546001600160a01b0316148015611cfe575060136000611ce5836001613f32565b815260208101919091526040016000206004015460ff16155b15611d2657888310611d185781611d1481613f58565b9250505b82611d2281613f58565b9350505b80611d3081613f58565b915050611c8e565b508067ffffffffffffffff811115611d5257611d52613c75565b604051908082528060200260200182016040528015611d8b57816020015b611d78613a12565b815260200190600190039081611d705790505b5095506000915060005b8481108015611da357508184105b15611ef1573060136000611db8846001613f32565b81526020810191909152604001600020600301546001600160a01b0316148015611e05575060136000611dec836001613f32565b815260208101919091526040016000206004015460ff16155b15611edf57888310611ed15760136000611e20836001613f32565b81526020808201929092526040908101600020815160e0810183528154815260018201549381019390935260028101546001600160a01b039081169284019290925260038101549182166060840152600160a01b9091046001600160601b031660808301526004015460ff808216151560a084015261010090910416151560c08201528751889086908110611eb757611eb7613f71565b60200260200101819052508380611ecd90613f58565b9450505b82611edb81613f58565b9350505b80611ee981613f58565b915050611d95565b50505050509250929050565b60006001600160a01b038216611f675760405162461bcd60e51b815260206004820152602960248201527f4552433732313a2061646472657373207a65726f206973206e6f7420612076616044820152683634b21037bbb732b960b91b60648201526084016108be565b506001600160a01b031660009081526003602052604090205490565b600d546001600160a01b03163314611fd55760405162461bcd60e51b81526020600482015260156024820152742737ba103a3432903832b73234b7339037bbb732b960591b60448201526064016108be565b600d54600c546040516001600160a01b0392831692909116907f8be0079c531659141344cd1fd0a4f28419497f9722a3daafe3b4186f6b6457e090600090a3600d8054600c80546001600160a01b03199081166001600160a01b03841617909155169055565b600c546001600160a01b031633146120655760405162461bcd60e51b81526004016108be90613eec565b6119aa61320d565b6060600180546107a090613eb2565b61208733838361324a565b5050565b600c546001600160a01b031633146120b55760405162461bcd60e51b81526004016108be90613eec565b600081116120fe5760405162461bcd60e51b815260206004820152601660248201527504d7573742062652067726561746572207468616e20360541b60448201526064016108be565b600f548111156121505760405162461bcd60e51b815260206004820152601960248201527f45786365656473206d6178206c697374696e672070726963650000000000000060448201526064016108be565b600e80549082905560408051828152602081018490527f522acc74fb3f21f3b09a9a4667b5faba86eb39c7f6b916a64f9114e68765abb4910160405180910390a15050565b600c546001600160a01b031633146121bf5760405162461bcd60e51b81526004016108be90613eec565b6001600160a01b0382166122155760405162461bcd60e51b815260206004820152601b60248201527f43616e6e6f742073656e6420746f207a65726f2061646472657373000000000060448201526064016108be565b6122296001600160a01b0384168383613310565b816001600160a01b0316836001600160a01b03167f8bbfbb5d7fcacf6fc74005cdede0635561638507f576c95f7f294c22141be2e58360405161226e91815260200190565b60405180910390a3505050565b6001600160a01b038416301480159061229d57506001600160a01b0383163014155b1561231e576000828152601360205260409020600481015460ff16806122d0575060038101546001600160a01b03163014155b61231c5760405162461bcd60e51b815260206004820152601b60248201527f43616e6e6f74207472616e73666572206c6973746564206974656d000000000060448201526064016108be565b505b61232a84848484613362565b50505050565b6002600954036123525760405162461bcd60e51b81526004016108be90613f87565b600260095561235f612d22565b6000818152601360205260409020805461238b5760405162461bcd60e51b81526004016108be90613fbe565b600481015460ff16156123b05760405162461bcd60e51b81526004016108be90613feb565b60038101546001600160a01b031630146123fe5760405162461bcd60e51b815260206004820152600f60248201526e125d195b481b9bdd081b1a5cdd1959608a1b60448201526064016108be565b806001015434146124515760405162461bcd60e51b815260206004820152601860248201527f4d757374207375626d69742061736b696e67207072696365000000000000000060448201526064016108be565b60028101546001600160a01b031633036124ad5760405162461bcd60e51b815260206004820152601b60248201527f43616e6e6f742062757920796f7572206f776e206c697374696e67000000000060448201526064016108be565b60028101546003820154600183015460405163152a902d60e11b81526004810186905260248101919091526001600160a01b0390921691600160a01b9091046001600160601b03169060009081903090632a55205a906044016040805180830381865afa92505050801561253e575060408051601f3d908101601f1916820190925261253b918101906140a5565b60015b1561254857925090505b6003850180546001600160a01b0319908116331790915560048601805460ff191660011790556002860180549091169055601280549060006125898361408e565b91905055503482111561259d575060009050805b82601060008282546125af9190613f45565b9091555050600c546001600160a01b0316600090815260146020526040812080548592906125de908490613f32565b9250508190555082601160008282546125f79190613f32565b90915550600090506126098334613f45565b6001600160a01b038616600090815260146020526040812080549293508392909190612636908490613f32565b92505081905550806011600082825461264f9190613f32565b9091555050821580159061266b57506001600160a01b03821615155b156126b7576001600160a01b03821660009081526014602052604081208054859290612698908490613f32565b9250508190555082601160008282546126b19190613f32565b90915550505b6126c230338961301f565b336001600160a01b0316856001600160a01b0316887f150ffca547cf855e7fcf5daa82e41c6523b5fb2c8b1309bbb6cf2f87c6ae5a31896001015460405161270c91815260200190565b60405180910390a4505060016009555050505050565b61272a613a12565b6000828152601360205260409020546127555760405162461bcd60e51b81526004016108be90613fbe565b50600090815260136020908152604091829020825160e0810184528154815260018201549281019290925260028101546001600160a01b039081169383019390935260038101549283166060830152600160a01b9092046001600160601b0316608082015260049091015460ff808216151560a084015261010090910416151560c082015290565b60606127e882612c21565b6000828152600660205260408120805461280190613eb2565b80601f016020809104026020016040519081016040528092919081815260200182805461282d90613eb2565b801561287a5780601f1061284f5761010080835404028352916020019161287a565b820191906000526020600020905b81548152906001019060200180831161285d57829003601f168201915b50505050509050600061289860408051602081019091526000815290565b905080516000036128aa575092915050565b8151156128dc5780826040516020016128c49291906140d3565b60405160208183030381529060405292505050919050565b6128e584613394565b949350505050565b60026009540361290f5760405162461bcd60e51b81526004016108be90613f87565b600260095561291c612d22565b600082815260136020526040902060038101546001600160a01b031633146129865760405162461bcd60e51b815260206004820152601a60248201527f4f6e6c79206974656d206f776e65722063616e20726573656c6c00000000000060448201526064016108be565b600e5434146129d05760405162461bcd60e51b81526020600482015260166024820152754d75737420706179206c697374696e6720707269636560501b60448201526064016108be565b600082116129f05760405162461bcd60e51b81526004016108be90614016565b600e546001600160601b031015612a425760405162461bcd60e51b81526020600482015260166024820152754c697374696e67207072696365206f766572666c6f7760501b60448201526064016108be565b60048101805460ff1916905560018101829055600e546002820180546001600160a01b031990811633179091556001600160601b03909116600160a01b02163017600382015560128054906000612a9883613f58565b9190505550600e5460106000828254612ab19190613f32565b90915550612ac2905033308561301f565b604051828152339084907fb2ba12d2566848b13548a3741edb565b69d3cbce7796959cd67431610207eb139060200160405180910390a35050600160095550565b6001600160a01b03918216600090815260056020908152604080832093909416825291909152205460ff1690565b600c546001600160a01b03163314612b5b5760405162461bcd60e51b81526004016108be90613eec565b6001600160a01b038116612baa5760405162461bcd60e51b815260206004820152601660248201527543616e6e6f74206265207a65726f206164647265737360501b60448201526064016108be565b600d80546001600160a01b0319166001600160a01b03838116918217909255600c54604051919216907f38d16b8cac22d99fc7c124b9cd0de2d3fa1faef420bfe791d8c362d765e2270090600090a350565b60006001600160e01b0319821663152a902d60e11b148061078b575061078b82613408565b6000818152600260205260409020546001600160a01b0316612c805760405162461bcd60e51b8152602060048201526018602482015277115490cdcc8c4e881a5b9d985b1a59081d1bdad95b88125160421b60448201526064016108be565b50565b600081815260046020526040902080546001600160a01b0319166001600160a01b0384169081179091558190612cb882611b9c565b6001600160a01b03167f8c5be1e5ebec7d5bd14f71427d1e84f3dd0314c0f7b2291e5b200ac8c7c3b92560405160405180910390a45050565b612cfb3382613458565b612d175760405162461bcd60e51b81526004016108be90614102565b61095f83838361301f565b600a5460ff16156119aa5760405162461bcd60e51b815260206004820152601060248201526f14185d5cd8589b194e881c185d5cd95960821b60448201526064016108be565b6001600160a01b038216612dbe5760405162461bcd60e51b815260206004820181905260248201527f4552433732313a206d696e7420746f20746865207a65726f206164647265737360448201526064016108be565b6000818152600260205260409020546001600160a01b031615612e235760405162461bcd60e51b815260206004820152601c60248201527f4552433732313a20746f6b656e20616c7265616479206d696e7465640000000060448201526064016108be565b6001600160a01b0382166000908152600360205260408120805460019290612e4c908490613f32565b909155505060008181526002602052604080822080546001600160a01b0319166001600160a01b03861690811790915590518392907fddf252ad1be2c89b69c2b068fc378daa952ba7f163c4a11628f55a4df523b3ef908290a45050565b600082815260136020526040902060040154610100900460ff1615612f075760405162461bcd60e51b81526020600482015260136024820152722a37b5b2b7102aa9249034b990333937bd32b760691b60448201526064016108be565b61208782826134b6565b6127106001600160601b0382161115612f7f5760405162461bcd60e51b815260206004820152602a60248201527f455243323938313a20726f79616c7479206665652077696c6c206578636565646044820152692073616c65507269636560b01b60648201526084016108be565b6001600160a01b038216612fd55760405162461bcd60e51b815260206004820152601b60248201527f455243323938313a20496e76616c696420706172616d6574657273000000000060448201526064016108be565b6040805180820182526001600160a01b0393841681526001600160601b0392831660208083019182526000968752600890529190942093519051909116600160a01b029116179055565b826001600160a01b031661303282611b9c565b6001600160a01b0316146130965760405162461bcd60e51b815260206004820152602560248201527f4552433732313a207472616e736665722066726f6d20696e636f72726563742060448201526437bbb732b960d91b60648201526084016108be565b6001600160a01b0382166130f85760405162461bcd60e51b8152602060048201526024808201527f4552433732313a207472616e7366657220746f20746865207a65726f206164646044820152637265737360e01b60648201526084016108be565b613103600082612c83565b6001600160a01b038316600090815260036020526040812080546001929061312c908490613f45565b90915550506001600160a01b038216600090815260036020526040812080546001929061315a908490613f32565b909155505060008181526002602052604080822080546001600160a01b0319166001600160a01b0386811691821790925591518493918716917fddf252ad1be2c89b69c2b068fc378daa952ba7f163c4a11628f55a4df523b3ef91a4505050565b6131c3613549565b600a805460ff191690557f5db9ee0a495bf2e6ff9c91a7834c1ba4fdd244a5e8aa4e537bd38aeae4b073aa335b6040516001600160a01b03909116815260200160405180910390a1565b613215612d22565b600a805460ff191660011790557f62e78cea01bee320cd4e420270b5ea74000d11b0c9f74754ebdbfc544b05a2586131f03390565b816001600160a01b0316836001600160a01b0316036132ab5760405162461bcd60e51b815260206004820152601960248201527f4552433732313a20617070726f766520746f2063616c6c65720000000000000060448201526064016108be565b6001600160a01b03838116600081815260056020908152604080832094871680845294825291829020805460ff191686151590811790915591519182527f17307eab39ab6107e8899845ad3d59bd9653f200f220920489ca2b5937696c31910161226e565b604080516001600160a01b038416602482015260448082018490528251808303909101815260649091019091526020810180516001600160e01b031663a9059cbb60e01b17905261095f908490613592565b61336c3383613458565b6133885760405162461bcd60e51b81526004016108be90614102565b61232a84848484613664565b606061339f82612c21565b60006133b660408051602081019091526000815290565b905060008151116133d65760405180602001604052806000815250613401565b806133e084613697565b6040516020016133f19291906140d3565b6040516020818303038152906040525b9392505050565b60006001600160e01b031982166380ac58cd60e01b148061343957506001600160e01b03198216635b5e139f60e01b145b8061078b57506301ffc9a760e01b6001600160e01b031983161461078b565b60008061346483611b9c565b9050806001600160a01b0316846001600160a01b0316148061348b575061348b8185612b03565b806128e55750836001600160a01b03166134a484610823565b6001600160a01b031614949350505050565b6000828152600260205260409020546001600160a01b03166135315760405162461bcd60e51b815260206004820152602e60248201527f45524337323155524953746f726167653a2055524920736574206f66206e6f6e60448201526d32bc34b9ba32b73a103a37b5b2b760911b60648201526084016108be565b600082815260066020526040902061095f828261419e565b600a5460ff166119aa5760405162461bcd60e51b815260206004820152601460248201527314185d5cd8589b194e881b9bdd081c185d5cd95960621b60448201526064016108be565b60006135e7826040518060400160405280602081526020017f5361666545524332303a206c6f772d6c6576656c2063616c6c206661696c6564815250856001600160a01b03166137989092919063ffffffff16565b80519091501561095f5780806020019051810190613605919061425e565b61095f5760405162461bcd60e51b815260206004820152602a60248201527f5361666545524332303a204552433230206f7065726174696f6e20646964206e6044820152691bdd081cdd58d8d9595960b21b60648201526084016108be565b61366f84848461301f565b61367b848484846137a7565b61232a5760405162461bcd60e51b81526004016108be9061427b565b6060816000036136be5750506040805180820190915260018152600360fc1b602082015290565b8160005b81156136e857806136d281613f58565b91506136e19050600a8361407a565b91506136c2565b60008167ffffffffffffffff81111561370357613703613c75565b6040519080825280601f01601f19166020018201604052801561372d576020820181803683370190505b5090505b84156128e557613742600183613f45565b915061374f600a866142cd565b61375a906030613f32565b60f81b81838151811061376f5761376f613f71565b60200101906001600160f81b031916908160001a905350613791600a8661407a565b9450613731565b60606128e584846000856138a8565b60006001600160a01b0384163b1561389d57604051630a85bd0160e11b81526001600160a01b0385169063150b7a02906137eb9033908990889088906004016142e1565b6020604051808303816000875af1925050508015613826575060408051601f3d908101601f191682019092526138239181019061431e565b60015b613883573d808015613854576040519150601f19603f3d011682016040523d82523d6000602084013e613859565b606091505b50805160000361387b5760405162461bcd60e51b81526004016108be9061427b565b805181602001fd5b6001600160e01b031916630a85bd0160e11b1490506128e5565b506001949350505050565b6060824710156139095760405162461bcd60e51b815260206004820152602660248201527f416464726573733a20696e73756666696369656e742062616c616e636520666f6044820152651c8818d85b1b60d21b60648201526084016108be565b6001600160a01b0385163b6139605760405162461bcd60e51b815260206004820152601d60248201527f416464726573733a2063616c6c20746f206e6f6e2d636f6e747261637400000060448201526064016108be565b600080866001600160a01b0316858760405161397c919061433b565b60006040518083038185875af1925050503d80600081146139b9576040519150601f19603f3d011682016040523d82523d6000602084013e6139be565b606091505b50915091506139ce8282866139d9565b979650505050505050565b606083156139e8575081613401565b8251156139f85782518084602001fd5b8160405162461bcd60e51b81526004016108be9190613ad1565b6040805160e081018252600080825260208201819052918101829052606081018290526080810182905260a0810182905260c081019190915290565b6001600160e01b031981168114612c8057600080fd5b600060208284031215613a7657600080fd5b813561340181613a4e565b60005b83811015613a9c578181015183820152602001613a84565b50506000910152565b60008151808452613abd816020860160208601613a81565b601f01601f19169290920160200192915050565b6020815260006134016020830184613aa5565b600060208284031215613af657600080fd5b5035919050565b6001600160a01b0381168114612c8057600080fd5b60008060408385031215613b2557600080fd5b8235613b3081613afd565b946020939093013593505050565b600060208284031215613b5057600080fd5b813561340181613afd565b8051825260208101516020830152604081015160018060a01b03808216604085015280606084015116606085015250506001600160601b03608082015116608083015260a0810151151560a083015260c0810151151560c08301525050565b600081518084526020808501945080840160005b83811015613bf457613be1878351613b5b565b60e0969096019590820190600101613bce565b509495945050505050565b6020815260006134016020830184613bba565b600080600060608486031215613c2757600080fd5b8335613c3281613afd565b92506020840135613c4281613afd565b929592945050506040919091013590565b60008060408385031215613c6657600080fd5b50508035926020909101359150565b634e487b7160e01b600052604160045260246000fd5b600067ffffffffffffffff80841115613ca657613ca6613c75565b604051601f8501601f19908116603f01168101908282118183101715613cce57613cce613c75565b81604052809350858152868686011115613ce757600080fd5b858560208301376000602087830101525050509392505050565b60008060008060808587031215613d1757600080fd5b843567ffffffffffffffff811115613d2e57600080fd5b8501601f81018713613d3f57600080fd5b613d4e87823560208401613c8b565b945050602085013592506040850135613d6681613afd565b915060608501356001600160601b0381168114613d8257600080fd5b939692955090935050565b604081526000613da06040830185613bba565b90508260208301529392505050565b8015158114612c8057600080fd5b60008060408385031215613dd057600080fd5b8235613ddb81613afd565b91506020830135613deb81613daf565b809150509250929050565b60008060008060808587031215613e0c57600080fd5b8435613e1781613afd565b93506020850135613e2781613afd565b925060408501359150606085013567ffffffffffffffff811115613e4a57600080fd5b8501601f81018713613e5b57600080fd5b613e6a87823560208401613c8b565b91505092959194509250565b60e0810161078b8284613b5b565b60008060408385031215613e9757600080fd5b8235613ea281613afd565b91506020830135613deb81613afd565b600181811c90821680613ec657607f821691505b602082108103613ee657634e487b7160e01b600052602260045260246000fd5b50919050565b60208082526016908201527527b7363c9036b0b935b2ba383630b1b29037bbb732b960511b604082015260600190565b634e487b7160e01b600052601160045260246000fd5b8082018082111561078b5761078b613f1c565b8181038181111561078b5761078b613f1c565b600060018201613f6a57613f6a613f1c565b5060010190565b634e487b7160e01b600052603260045260246000fd5b6020808252601f908201527f5265656e7472616e637947756172643a207265656e7472616e742063616c6c00604082015260600190565b602080825260139082015272125d195b48191bd95cc81b9bdd08195e1a5cdd606a1b604082015260600190565b602080825260119082015270125d195b48185b1c9958591e481cdbdb19607a1b604082015260600190565b6020808252601c908201527f5072696365206d757374206265206174206c6561737420312077656900000000604082015260600190565b808202811582820484141761078b5761078b613f1c565b634e487b7160e01b600052601260045260246000fd5b60008261408957614089614064565b500490565b60008161409d5761409d613f1c565b506000190190565b600080604083850312156140b857600080fd5b82516140c381613afd565b6020939093015192949293505050565b600083516140e5818460208801613a81565b8351908301906140f9818360208801613a81565b01949350505050565b6020808252602e908201527f4552433732313a2063616c6c6572206973206e6f7420746f6b656e206f776e6560408201526d1c881b9bdc88185c1c1c9bdd995960921b606082015260800190565b601f82111561095f57600081815260208120601f850160051c810160208610156141775750805b601f850160051c820191505b8181101561419657828155600101614183565b505050505050565b815167ffffffffffffffff8111156141b8576141b8613c75565b6141cc816141c68454613eb2565b84614150565b602080601f83116001811461420157600084156141e95750858301515b600019600386901b1c1916600185901b178555614196565b600085815260208120601f198616915b8281101561423057888601518255948401946001909101908401614211565b508582101561424e5787850151600019600388901b60f8161c191681555b5050505050600190811b01905550565b60006020828403121561427057600080fd5b815161340181613daf565b60208082526032908201527f4552433732313a207472616e7366657220746f206e6f6e20455243373231526560408201527131b2b4bb32b91034b6b83632b6b2b73a32b960711b606082015260800190565b6000826142dc576142dc614064565b500690565b6001600160a01b038581168252841660208201526040810183905260806060820181905260009061431490830184613aa5565b9695505050505050565b60006020828403121561433057600080fd5b815161340181613a4e565b6000825161434d818460208701613a81565b919091019291505056fea26469706673582212201b911dc1079abc0241201d36846a2d667e23877c11ef845366e351f2c90a336364736f6c63430008140033",
  "linkReferences": {},
  "deployedLinkReferences": {}
}